{
    "_format": "hh-sol-artifact-1",
    "contractName": "Memory",
    "sourceName": "contracts/Memory.sol",
    "abi": [
        {
            "anonymous": false,
            "inputs": [
                {
                    "indexed": false,
                    "internalType": "uint256",
                    "name": "memoryId",
                    "type": "uint256"
                },
                {
                    "indexed": false,
                    "internalType": "address",
                    "name": "memoryCreator",
                    "type": "address"
                },
                {
                    "indexed": false,
                    "internalType": "uint256",
                    "name": "eventTimestamp",
                    "type": "uint256"
                },
                {
                    "indexed": false,
                    "internalType": "string",
                    "name": "memoryCID",
                    "type": "string"
                }
            ],
            "name": "newMemoryAdded",
            "type": "event"
        },
        {
            "inputs": [
                {
                    "internalType": "string",
                    "name": "memoryCID",
                    "type": "string"
                },
                {
                    "internalType": "uint256",
                    "name": "eventTimestamp",
                    "type": "uint256"
                },
                {
                    "internalType": "uint256",
                    "name": "memoryId",
                    "type": "uint256"
                },
                {
                    "internalType": "bool",
                    "name": "visibleToPublic",
                    "type": "bool"
                }
            ],
            "name": "createNewMemory",
            "outputs": [
                {
                    "internalType": "address",
                    "name": "",
                    "type": "address"
                }
            ],
            "stateMutability": "nonpayable",
            "type": "function"
        },
        {
            "inputs": [
                {
                    "internalType": "uint256",
                    "name": "",
                    "type": "uint256"
                }
            ],
            "name": "idToCard",
            "outputs": [
                {
                    "internalType": "uint256",
                    "name": "memoryId",
                    "type": "uint256"
                },
                {
                    "internalType": "string",
                    "name": "memoryCID",
                    "type": "string"
                },
                {
                    "internalType": "address",
                    "name": "memoryOwner",
                    "type": "address"
                },
                {
                    "internalType": "uint256",
                    "name": "eventTimestamp",
                    "type": "uint256"
                },
                {
                    "internalType": "bool",
                    "name": "visibleToPublic",
                    "type": "bool"
                }
            ],
            "stateMutability": "view",
            "type": "function"
        }
    ],
    "bytecode": "0x608060405234801561001057600080fd5b50610849806100206000396000f3fe608060405234801561001057600080fd5b50600436106100365760003560e01c80638befdcd61461003b578063bf0fbf2a1461006b575b600080fd5b610055600480360381019061005091906104ce565b61009f565b604051610062919061060a565b60405180910390f35b6100856004803603810190610080919061054e565b610242565b604051610096959493929190610673565b60405180910390f35b600060606040518060c0016040528085815260200188888080601f016020809104026020016040519081016040528093929190818152602001838380828437600081840152601f19601f8201169050808301925050505050505081526020013373ffffffffffffffffffffffffffffffffffffffff16815260200182815260200186815260200184151581525060008086815260200190815260200160002060008201518160000155602082015181600101908051906020019061016492919061032d565b5060408201518160020160006101000a81548173ffffffffffffffffffffffffffffffffffffffff021916908373ffffffffffffffffffffffffffffffffffffffff16021790555060608201518160030190805190602001906101c89291906103b3565b506080820151816004015560a08201518160050160006101000a81548160ff0219169083151502179055509050507fdb46658a84346aaf93c9adcc0cef84f8fd88f1b29da92dcf69a9f4dbccdcc9fb8433878a8a60405161022d959493929190610625565b60405180910390a13391505095945050505050565b600060205280600052604060002060009150905080600001549080600101805461026b90610773565b80601f016020809104026020016040519081016040528092919081815260200182805461029790610773565b80156102e45780601f106102b9576101008083540402835291602001916102e4565b820191906000526020600020905b8154815290600101906020018083116102c757829003601f168201915b5050505050908060020160009054906101000a900473ffffffffffffffffffffffffffffffffffffffff16908060040154908060050160009054906101000a900460ff16905085565b82805461033990610773565b90600052602060002090601f01602090048101928261035b57600085556103a2565b82601f1061037457805160ff19168380011785556103a2565b828001600101855582156103a2579182015b828111156103a1578251825591602001919060010190610386565b5b5090506103af919061043d565b5090565b82805482825590600052602060002090810192821561042c579160200282015b8281111561042b5782518260006101000a81548173ffffffffffffffffffffffffffffffffffffffff021916908373ffffffffffffffffffffffffffffffffffffffff160217905550916020019190600101906103d3565b5b509050610439919061043d565b5090565b5b8082111561045657600081600090555060010161043e565b5090565b600081359050610469816107e5565b92915050565b60008083601f84011261048157600080fd5b8235905067ffffffffffffffff81111561049a57600080fd5b6020830191508360018202830111156104b257600080fd5b9250929050565b6000813590506104c8816107fc565b92915050565b6000806000806000608086880312156104e657600080fd5b600086013567ffffffffffffffff81111561050057600080fd5b61050c8882890161046f565b9550955050602061051f888289016104b9565b9350506040610530888289016104b9565b92505060606105418882890161045a565b9150509295509295909350565b60006020828403121561056057600080fd5b600061056e848285016104b9565b91505092915050565b610580816106e9565b82525050565b61058f816106fb565b82525050565b60006105a183856106d8565b93506105ae838584610731565b6105b7836107d4565b840190509392505050565b60006105cd826106cd565b6105d781856106d8565b93506105e7818560208601610740565b6105f0816107d4565b840191505092915050565b61060481610727565b82525050565b600060208201905061061f6000830184610577565b92915050565b600060808201905061063a60008301886105fb565b6106476020830187610577565b61065460408301866105fb565b8181036060830152610667818486610595565b90509695505050505050565b600060a08201905061068860008301886105fb565b818103602083015261069a81876105c2565b90506106a96040830186610577565b6106b660608301856105fb565b6106c36080830184610586565b9695505050505050565b600081519050919050565b600082825260208201905092915050565b60006106f482610707565b9050919050565b60008115159050919050565b600073ffffffffffffffffffffffffffffffffffffffff82169050919050565b6000819050919050565b82818337600083830152505050565b60005b8381101561075e578082015181840152602081019050610743565b8381111561076d576000848401525b50505050565b6000600282049050600182168061078b57607f821691505b6020821081141561079f5761079e6107a5565b5b50919050565b7f4e487b7100000000000000000000000000000000000000000000000000000000600052602260045260246000fd5b6000601f19601f8301169050919050565b6107ee816106fb565b81146107f957600080fd5b50565b61080581610727565b811461081057600080fd5b5056fea264697066735822122084eb5792589ac2a84a1a422883c04cee9dbb039f0b273fb89ef0b06e987d88d764736f6c63430008040033",
    "linkReferences": {},
    "deployedLinkReferences": {}
}